:020000040800F2
:10000000A02A0020A1010008DD5A0008AB55000815
:10001000D95A0008D50C0008F57C00080000000043
:10002000000000000000000000000000496100081E
:10003000D90C0008000000001D5B0008B97800081A
:10004000BB010008BB010008BB0100083D5E0008C1
:10005000BB010008BB010008BB010008BB01000890
:10006000BB010008BB010008BB010008BB01000880
:10007000BB010008BB010008BB010008BB01000870
:10008000BB010008BB010008BB010008BB01000860
:10009000BB010008BB010008BB010008DB0C000825
:1000A000BB010008BB010008BB010008BB01000840
:1000B000BB0100080000000000000000BB010008B8
:1000C000BB010008BB010008BB010008BB01000820
:1000D000BB010008B57C0008BB010008BB0100089B
:1000E000BB010008BB010008000000000000000088
:1000F0000000000000000000000000000000000000
:1001000000000000BB01000800000000BB01000867
:100110000000000000000000BB010008BB01000857
:10012000BB010008BB010008BB010008BB010008BF
:10013000BB010008000000000000000000000000FB
:10014000BB010008BB010008BB0100080000000063
:10015000BB010008BB010008BB010008BB0100088F
:10016000BB010008BB010008BB0100080000000043
:10017000BB010008BB0100080000000000000000F7
:10018000BB010008BB010008BB010008DFF80CD070
:1001900000F040FB00480047F18F0008A02A002033
:1001A0000648804706480047FEE7FEE7FEE7FEE711
:1001B000FEE7FEE7FEE7FEE7FEE7FEE76D790008F3
:1001C0008D01000840EA01039B0703D009E008C93C
:1001D000121F08C0042AFAD203E011F8013B00F80C
:1001E000013B521EF9D27047D2B201E000F8012B58
:1001F000491EFBD270470022F6E710B513460A46A7
:1002000004461946FFF7F0FF204610BD2DE9FE4FCA
:10021000804681EA0300C00F0C46009021F00041A7
:1002200023F00045B8EB0200A94105D24046214623
:1002300090461C460B46024623F00040104347D030
:10024000270DC7F30A00C3F30A510290401A019028
:1002500040286BDAC3F3130040F4801B00989246E9
:1002600020B10023D2EB030A63EB0B0B0198594634
:10027000C0F14002504600F0D8F906460D465046FF
:100280005946019A00F0F0F910EB08006141002492
:1002900087EA115284EAE7731A4340D0009A62B3A6
:1002A000019A012A4FEA075215DC001B61EB02019B
:1002B0004FF0004202EA0752CDE90042001C41F52E
:1002C000801132462B4600F027FA03B000F045B803
:1002D00040462146F9E7001B61EB0201001C41F595
:1002E000801300185B412018A2F5001747EB0301AB
:1002F00040EAD570B6196D4111E06D084FEA360637
:1003000045EAC0754FEA0752001B61EB0201001C71
:1003100041F5801149084FEA300000195141324639
:100320002B4603B000F01CB800F0E7B9009801229A
:1003300040000023D0EB020263EBE07300982146FB
:100340004FEAE074B8EB000061EB0401E9E783F0E9
:1003500000435BE781F0004158E730BCBDE8C08F47
:1003600030BCBDE8C04FFFF7DFBF2DE9FE4F81EA8B
:10037000030404F0004421F0004100944FF0000B0E
:1003800023F0004350EA01045ED052EA03045BD03C
:10039000C3F30A54C1F30A552C44A4F2F334019474
:1003A000A0FB0254C1F3130141F48011C3F3130302
:1003B00043F4801301FB024400FB034E840A970AB6
:1003C00044EA815447EA8357A4FB076802958D0AE3
:1003D00005FB07854FEA932C04FB0C542705029D6F
:1003E0004FEA065847EA1637B5EB08056EEB070CDF
:1003F000870E920E47EA811742EA8312A7FB020199
:10040000B6EB0B0164EB00042B0D43EA0C335E18D2
:1004100044EB1C50DA465146E7FB0201C5F31304D6
:100420004FEA0B3343EA14534FEA0432019C43EA88
:100430000603A4F10C040294009CCDE900B400F082
:100440006BF903B000F003B800200146F9E730BCB7
:10045000BDE8C08F2DE9F04D81EA030404F0004BA4
:1004600021F0004514464FF0000A23F0004150EA05
:10047000050220D054EA01021DD0C5F30A570246F6
:10048000C5F31303C1F31300C1F30A5640F48015FA
:1004900043F48013A7EB0608101BD64608F2FD387C
:1004A00073EB050002D308F1010801E092185B41EB
:1004B000B8F1000F03DA00200146BDE8F08D0020FE
:1004C0004FF48011064684460EE0171B73EB0507B8
:1004D00005D3121B63EB050306434CEA010C4908E4
:1004E0004FEA300092185B4150EA0107EDD152EA21
:1004F000030012D082EA040083EA0501084305D014
:10050000101BAB4106D20122002306E000224FF06F
:10051000004302E06FF0010253101AEB06004CEBAF
:10052000085110EB0A0041EB0B01BDE8F04D00F063
:10053000E4B80EB5C10F80EAE0700844CA07002194
:1005400040F233438DE80E000A460B4600F0E4F813
:1005500003B000BD0EB540F2334102910021CDE958
:1005600000110A460B4600F0D7F803B000BDC1F3F6
:100570000A5210B5C1F3130140F2FF3341F4801168
:100580009A4201DA002010BD40F233439A42A2F2AF
:10059000334203DC524200F057F810BD904010BDCA
:1005A00000F0004230F000400AD0C10D01F560714A
:1005B000C0F3160042EA0151C208400711437047D8
:1005C00000200146704701F0004330B421F00041A3
:1005D00050EA010206D00A0DA2F56072C1F31301C0
:1005E000002A02DC30BC00207047440F44EAC104FA
:1005F000C100E01830BC00EBC25000F047B830B585
:100600000B46014600202022012409E021FA02F5D0
:100610009D4205D303FA02F5491B04FA02F528446A
:10062000151EA2F10102F1DC30BD202A04DB203AC4
:1006300000FA02F1002070479140C2F1200320FA35
:1006400003F3194390407047202A04DB203A21FA33
:1006500002F00021704721FA02F3D040C2F12002DB
:100660009140084319467047202A06DBCB17203AF1
:1006700041FA02F043EAE07306E041FA02F3D040A7
:10068000C2F1200291400843194670470029A8BFD3
:100690007047401C490008BF20F00100704710B4AB
:1006A000B0FA80FC00FA0CF050EA010404BF10BC60
:1006B000704749B1CCF1200421FA04F411FA0CF18D
:1006C00018BF012121430843A3EB0C01CB1D4FEAC6
:1006D00000614FEA102042BF002010BC704700EBC1
:1006E000C35010440029A4BF10BC7047401C4900EF
:1006F00008BF20F0010010BC704710B5141E73F144
:10070000000408DA401C41F1000192185B411A43D1
:1007100001D120F0010010BD2DE9F04D92469B461D
:1007200011B1B1FA81F202E0B0FA80F220329046C3
:10073000FFF77BFF04460F4640EA0A0041EA0B013F
:1007400053465A46084313D0114653EA010019D0C4
:10075000C8F140025046FFF777FF05460E46504667
:1007600059464246FFF761FF084305D0012004E0E7
:1007700020463946BDE8F08D0020054346EAE07684
:100780002C4337430A986305E40AA0EB08000022D3
:10079000FD0A44EA47540A3002D500200146E9E741
:1007A000010510196941DDE9084500196941BDE8F5
:1007B000F04DA2E770B521F0004303430CD0C1F324
:1007C0000A550024D5EB040564EB0403D617AD1AD3
:1007D000B34102DB0020014670BD201841EB0251FD
:1007E00070BD000030B5041E71F1000404DB4FF051
:1007F0000044404264EB0101141E73F1000405DB68
:100800001C464FF00043524263EB0403994208BF79
:10081000904230BD064C074D06E0E06840F0010311
:1008200094E8070098471034AC42F6D3FFF7B2FCC7
:1008300098950008B89500082DE9F04D00231A4658
:100840001B1A8A4103DB00200146BDE8F08DC1F38D
:100850000A52C1F3130141F480154FF0000BD10788
:1008600002D100186D41521E0027044640F2FF11CC
:10087000384601EB620A3E468046024600204FF4AD
:100880008011FFF7E1FEC2197141BB1846EB010070
:10089000B4EB030C75EB000C04D3E41A65EB000514
:1008A00017460E46241908F101006D418046342890
:1008B000E3DDF91946EB0600091BA84103D24FF00E
:1008C000FF32134601E0002213461BEB070046EB04
:1008D0000A51BDE8F04DFFF710BF000000B587B02A
:1008E0000A48019006200290002003907F20049087
:1008F000042005900020069001A9054800F0F0FDB5
:1009000008B100F05DFA07B000BD000000018021D1
:10091000DC0500202DE9F04104460D460027B846CD
:1009200000262068806800F00C0008B1012000E07B
:100930000020002873D02068C06800F00070B0F17B
:10094000007F1FD1E06901281CD1A069012819D1BD
:1009500001250EE0334886420AD3A06D40F0100016
:10096000A065E06D40F00100E0650120BDE8F08188
:10097000761C20680068C0F380100028EAD0402070
:1009800021680860022D13D02068806800F0040000
:1009900004280DD12068806800F0020040B920686A
:1009A0008168214A114041F01001816000BF00BF01
:1009B000012D10D02068806800F0080008280AD1B6
:1009C0002068806800F0020028B92068806840F044
:1009D000200021688860022D03D0032D03D10C274D
:1009E00003E0082701E0042700BF00BF01F088FEF4
:1009F00080460FE001F084FEA0EB0800052809D92D
:100A0000A06D40F01000A065E06D40F00100E065D1
:100A10000120ABE72068806838400028EAD1002038
:100A2000A4E70000000040A3C0FFFF7F70B50446AC
:100A300000252068806800F00300012806D12068A6
:100A4000006800F0010008B1012000E0002080B340
:100A50002068806800F00D00012800D100E000202F
:100A600050B120688168174A1140891C816000BF1D
:100A700003202168086009E0A06D40F01000A06527
:100A8000E06D40F00100E065012070BD01F038FE2E
:100A900005460FE001F034FE401B02280AD9A06D84
:100AA00040F01000A065E06D40F00100E06501201D
:100AB000EBE705E02068806800F001000028E9D13C
:100AC0000020E2E7C0FFFF7F38B504460025002084
:100AD00000902068806800F00300012806D120689B
:100AE000006800F0010008B1012000E000200028AB
:100AF00046D1206880682349084008B9012000E0F9
:100B0000002048B9A06D40F01000A065E06D40F0F5
:100B10000100E065012038BD206804F0A1FE1A48FC
:100B200000681A49B0FBF1F000EB80004000009033
:100B300002E00098401E009000980028F9D101F0D2
:100B4000DFFD054616E02068816801F0010111B95A
:100B5000206804F085FE01F0D3FD401B022809D96E
:100B6000A06D40F01000A065E06D40F00100E06570
:100B70000120D0E72068006800F001000028E2D0E2
:100B80000020C8E73F0000807C00002080841E0019
:100B900010B52DED0C8B04F00DFF7F213D4800F0CA
:100BA00049FC08B100F00CF93A4801F096F908B197
:100BB00000F006F90A21374801F02CF910B100F0D5
:100BC000FFF804E0334800F0EBFF33490880FFF7FB
:100BD00085FE7F212F4800F02DFC08B100F0F0F8D1
:100BE0002C4801F07AF908B100F0EAF80A21294806
:100BF00001F010F910B100F0E3F804E0254800F02E
:100C0000CFFF2649088024480088FFF7A3FC41EC69
:100C10001B0B22480088FFF79DFC41EC1D0B9FED4C
:100C2000200B53EC102BFFF7A0FB41EC1C0B53ECFB
:100C30001B2BFFF70FFC41EC1A0B9FED1B0B53EC2A
:100C4000102BFFF792FB41EC190B9FED190B53ECA6
:100C5000102BFFF78AFB41EC180BFFF7B4FC164989
:100C60000860084690ED000ABDEEC00A10EE100ABA
:100C700012490880104890ED000ADFED110A80EE5D
:100C8000201A80ED001A0F480B490968416000F0F6
:100C90001BB810BDDC0500208C0000208E00002059
:100CA000713D0AD7A370F53F0000000000408F405F
:100CB0000000000000000040900000209400002090
:100CC00000007A44B0010020BDEC088BBDEC04CBE1
:100CD000FFF7DFBF00BFFEE7704710B54FF480702D
:100CE00001F00CFC10BD000010B52DED0C8B0120A7
:100CF00024490870244803F03DF824480068FFF7B1
:100D000029FC41EC1D0B9FED220B53EC102BFFF740
:100D10002CFB41EC1C0B9FED200B53EC102BFFF731
:100D200075FA41EC1A0B1E480068FFF713FC41EC02
:100D30001B0B53EC1A2BFFF70AFB41EC190B9FED31
:100D4000190B53EC102BFFF761FA41EC180BFFF76E
:100D50000EFC134908600022084601680A4803F0A7
:100D60005DF806F057FD114801F039FD104800F01C
:100D700035FE00F0D9FA012002F0B2F800F01AB8FE
:100D800010BD0000420000208C0100203000002037
:100D9000FCA9F1D24D6200400000000000000000FC
:100DA00038000020000000000000F03F800200201A
:100DB000DC050020BDEC088BBDEC04CBFFF7E0BFE9
:100DC00011E04FF400414FF0904000F003FB80F041
:100DD000010422464FF400414FF0904000F020FB08
:100DE000C82001F0E1F9ECE71849087F012801D09B
:100DF000032811D100BF1649096841F40061144A63
:100E000011601146096821F40061116000BF1146AC
:100E1000096841F400711160022801D0032811D142
:100E200000BF0B49096841F48051094A116011461D
:100E3000096821F48051116000BF1146096841F42E
:100E4000806111600021014A117770475C00002029
:100E50000020024000F0010129B10649496941F032
:100E60000401044A51610349496941F48031014A4E
:100E70005161704700200240084A526960F3CA027B
:100E8000064B5A611A46526942F002025A611A46EA
:100E9000526942F480325A617047000000200240DB
:100EA00010B50449496941F00101024C61610260D9
:100EB000436010BD0020024070B5402204460B463E
:100EC000084D6D6945F48025064E756172B600BF08
:100ED0001D682560241D1B1D551EEAB2002AF7D18E
:100EE00062B670BD0020024070B5054601F008FCF6
:100EF000064608E0681C30B101F002FC801BA842E5
:100F000001D3032070BD1C48006900F48030B0F5A7
:100F1000803FEFD018480069184900EA01041648DC
:100F2000806900F000400443CCB11548406820437C
:100F30001349486000BF04F0404030B10E4880695A
:100F400004F0404108430C49886124F0404018B146
:100F500024F040400849086100BF0120D2E706485C
:100F6000006900F0010020B100BF012002490861C2
:100F700000BF0020C6E7000000200240FAC30200C4
:100F80005C00002010B501F0A3F9002010BD0000A6
:100F900030B585B005460020049000BF4FF40040F6
:100FA0000B49086100BF01200190002000902846F5
:100FB00000F008F902900120039004A9684601F0AE
:100FC00001F9044614B1012005B030BD0020FBE753
:100FD0000020024010B501F0E5F9002010BD10B569
:100FE00003460C46002104E0501A401E205C585471
:100FF000491C9142F8D3002010BD00002DE9F047B4
:1010000005460E469146002400BF4FF400401149AA
:10101000086100BF00BF18E028193119D0E900733A
:101020003A46002001F05EF960B92819D0E90010B5
:101030003219D2E9003259405040014304D0022015
:10104000BDE8F0870120FBE708344C45E4D30020DD
:10105000F6E700000020024000B587B000BF564808
:10106000C06C40F001005449C8640846C06C00F0F0
:101070000100019000BF00BF00BF0846C06C40F0F7
:101080000200C8640846C06C00F00200019000BF76
:1010900000BF00BF0846C06C40F00400C8640846AA
:1010A000C06C00F00400019000BF00BF00BF084604
:1010B000C06C40F08000C8640846C06C00F080003E
:1010C000019000BF00BF4FF4004002900120039048
:1010D00000200490059002A94FF0904001F01CFA06
:1010E0000122D1034FF0904000F09AF901200290C4
:1010F000039000200490059002A94FF0904001F069
:101100000BFA012211464FF0904000F089F90820B7
:1011100002900120039004900220059002A9274824
:1011200001F0FAF901220821244801F0E3FA41F222
:10113000040002900120039000200490059002A971
:101140004FF0904001F0E8F9102002900120039048
:1011500000200490059002A94FF0904001F0DCF9C6
:101160004FF400600290002003900220049002A936
:101170004FF0904001F0D0F94FF480700290104889
:1011800003900220049002A94FF0904001F0C4F9AE
:10119000012241F210014FF0904000F041F901228C
:1011A0000821064801F0A6FA012204214FF09040E0
:1011B00001F0A0FA07B000BD001002400004004892
:1011C0000000111001460020134A12684FF6FF7309
:1011D0009A4202D14FF4801203E00F4A128812059E
:1011E000920A02F100628A4203D9A1F10062D00A98
:1011F00010E0094A12684FF6FF739A4202D14FF489
:10120000801203E0044A12881205920A02F1006279
:101210008A1AD00A70470000E075FF1F10B52DED47
:101220000A8B0024354836490860084602F049FD1B
:1012300018B9334802F039FD84B2314802F0DEFCBF
:10124000204604EBD0714910A4EB410149BB2D4865
:101250000078FFF77FF941EC190B2046FFF77AF988
:1012600041EC1C0B9FED280B53EC102BFFF77DF886
:1012700041EC1B0B9FED260B53EC102BFFF7EAF80C
:1012800041EC1A0B53EC192BFFF76FF841EC180BDC
:10129000FFF76DF984B22048006820441E490860B9
:1012A00028E018480078FFF755F941EC1A0B204662
:1012B000FFF750F941EC1C0B9FED130B53EC102B77
:1012C000FFF753F841EC180B9FED110B53EC102B6B
:1012D000FFF7C0F841EC1B0B53EC1A2BFFF745F856
:1012E00041EC190BFFF743F984B20B480068001B6F
:1012F00009490860204600F011B810BD00080650EA
:1013000044060020BA000020FCA9F1D24D62004042
:10131000000000000000F04038000020BDEC088B09
:10132000BDEC02CBFFF7E9BF00B585B046F21E6009
:101330000090032001900020029069464FF09040F9
:1013400001F0EAF84FF6F7700090032001900020BA
:1013500002906946074801F0DFF84FF6FF700090F1
:1013600003200190002002906946034801F0D4F860
:1013700005B000BD000400480008004801460020F8
:1013800001F47F420AB140F008004FF2F0020A4037
:101390000AB140F004004CF6CC420A400AB140F0D9
:1013A00002004AF6AA220A400AB140F00100704742
:1013B00070B505462846FFF7E1FF0446044850F89B
:1013C000240018B1024951F82400804770BD000084
:1013D000CC02002070B504460D462946204601F097
:1013E00081F970BD2DE9F04781460D4616461C4631
:1013F0002846FFF7C3FF074674B1084840F8274066
:10140000284604F08FFA804600223146404601F01B
:10141000CBFC404601F0B8FCBDE8F087CC020020D0
:1014200070B505460E461446E2B23146284601F034
:1014300061F970BD2DE9F04104460D4600260027F4
:1014400000BF94F85400012802D10220BDE8F081C9
:10145000012084F8540000BF2046FFF7E7FA064653
:1014600096BBA06D20F4885040F00200A065206873
:10147000806820F080402843216888602068806868
:1014800040F000402168886010E07F1CB7F5912F84
:101490000CD3A06D20F0020040F01000A06500BF4A
:1014A000002084F8540000BF0120CFE72068806846
:1014B00000F00040B0F1004FE7D0A06D20F0020036
:1014C00040F00100A06504E0FFE7A06D40F01000CF
:1014D000A06500BF002084F8540000BF3046B5E787
:1014E0002DE9F84305460C46002700200090FE49F0
:1014F000E068884200D000E000BF00BF95F85400CB
:10150000012802D10220BDE8F883012085F85400AB
:1015100000BF286804F0BFF9002876D1606805286C
:101520001AD86068022806D0032807D0042808D0FB
:1015300005280DD108E00C2060600CE012206060EE
:1015400009E01820606006E04FF48070606002E0FF
:101550000620606000BF00BF2968D4E9002000F4C5
:10156000407C4FF4407898FAA8F8B8FA88F82CFA3A
:1015700008FC01F1300808EB8C0300F01F094FF064
:101580001F0808FA09F8D3F800C02CEA080C00F08C
:101590001F09C2F3846808FA09F84CEA080CC3F87A
:1015A00000C000BF2868806800F00C0008B101206E
:1015B00000E00020002827D1A2682168286804F0F4
:1015C00077F960692968C968C1F3C101490000FA67
:1015D00001F62069042819D028682268216900F1E1
:1015E000600C0CEB8103DFF80483D3F800C00CEA35
:1015F000080C02F0F84848F0004848EA06084CEAAF
:10160000080CC3F800C000BFA8E0CCE100212868A6
:1016100004F033F9C0F3120030B90021286804F057
:101620002CF9C0F3846007E00021286804F025F954
:1016300090FAA0F0B0FA80F02168C1F3120119B954
:101640002168C1F3846104E0216891FAA1F1B1FA43
:1016500081F1884204D100221146286804F057F92C
:101660000121286804F009F9C0F3120030B9012102
:10167000286804F002F9C0F3846007E001212868BB
:1016800004F0FBF890FAA0F0B0FA80F02168C1F302
:10169000120119B92168C1F3846104E0216891FA4B
:1016A000A1F1B1FA81F1884204D100220121286818
:1016B00004F02DF90221286804F0DFF8C0F31200CD
:1016C00030B90221286804F0D8F8C0F3846007E03C
:1016D0000221286804F0D1F890FAA0F0B0FA80F066
:1016E0002168C1F3120119B92168C1F3846104E0D2
:1016F000216891FAA1F1B1FA81F1884204D1002266
:101700000221286804F003F90321286804F0B5F8E1
:10171000C0F3120030B90321286804F0AEF8C0F31A
:10172000846007E00321286804F0A7F890FAA0F08D
:10173000B0FA80F02168C1F3120119B92168C1F330
:10174000846104E0216891FAA1F1B1FA81F1884243
:1017500004D100220321286804F0D9F828688068A1
:1017600000F00300012806D12868006800F001009D
:1017700008B1012000E0002000287CD12868E26840
:101780002168D0F8B030C1F3120C23EA0C03C1F386
:10179000120C02F02009DFF8588108FA09F80CEA67
:1017A000080C43EA0C03C0F8B03000BF4E49E068B3
:1017B000884260D12368C3F312031BB92368C3F3C3
:1017C000846304E0236893FAA3F3B3FA83F35B1C06
:1017D000092B38D82368C3F312031BB92368C3F35A
:1017E000846304E0236893FAA3F3B3FA83F35B1CE6
:1017F0004FF0010C0CFA03FC2368C3F312031BB96E
:101800002368C3F3846304E0236893FAA3F3B3FA71
:1018100083F35B1C4CEA836C2368C3F312031BB98C
:101820002368C3F3846304E0236893FAA3F3B3FA51
:1018300083F35B1C03EB43034FF0000848EA0353B8
:101840004CEA030339E02368C3F312031BB923688E
:10185000C3F3846304E0236893FAA3F3B3FA83F336
:101860005B1C4FF0010C0CFA03FC2368C3F312035A
:101870002BB9236800E025E0C3F3846304E0236808
:1018800093FAA3F3B3FA83F35B1C4CEA836C2368EB
:10189000C3F312031BB92368C3F3846304E0236812
:1018A00093FAA3F3B3FA83F3093B03EB43034FF03B
:1018B000007848EA03534CEA03031946A2682868F3
:1018C00003F0F6FF0B492068884205D10A4803F06F
:1018D000CFFF00F4000000B308492068884212D10D
:1018E000054803F0C5FF0BE000007F4000F0FF0358
:1018F000FFFF0700000052C700030450000084CB24
:1019000000F0807048B12E492068884250D12D489F
:1019100003F0AEFF00F4800000BB2B492068884232
:101920001DD12A492868884242D1264803F0A0FFE9
:1019300040F400084146234803F0E3FF24480068D0
:101940002449B0FBF1F0C0EB0010C000009002E0B1
:101950000098401E009000980028F9D128E01E4908
:10196000206888420DD119492868884220D115483D
:1019700003F07EFF40F080784146124803F0C1FF3B
:1019800016E00F492068884212D110492868884221
:101990000ED10C4803F06CFF40F480084146094822
:1019A00003F0AFFF04E0A86D40F02000A865012718
:1019B00000BF002085F8540000BF3846A3E50000B2
:1019C0000100008000030450000052C700000450D2
:1019D0007C00002080841E00000084CB10B50446EB
:1019E0000CB9012010BDA06D40F00200A0650321DC
:1019F0002046FEF78FFF2068C06840F40010216881
:101A0000C8602046FFF712F8206840686FF30A00AC
:101A10002168486040F2FF70216808602068806893
:101A200020F0A040216888602068806840F0005065
:101A3000216888602068C068534908402168C860F0
:101A40002068C06840F000402168C86020680069D4
:101A50006FF30A00216808612068406900F0404087
:101A6000216848612068806900F0784021688861B9
:101A70002068006A00F0F020216808622068406A4F
:101A800000F0FF20216848622068806A00F0FF2093
:101A9000216888622068006B3C490840216808631F
:101AA0002068406B39491039084021684863206834
:101AB000806B364910390840216888632068C06B04
:101AC00040F2DF7188432168C8632068006E3049A6
:101AD0000840216808662068406E2D49084021684A
:101AE00048662068806E2A49084021688866206818
:101AF000C06E274908402168C8662068D0F8A00059
:101B00006FF312002168C1F8A0002068D0F8A4008B
:101B10006FF312002168C1F8A4002068D0F8B0006B
:101B20006FF312002168C1F8B0002068D0F8B4004B
:101B300020F07F102168C1F8B4002068806800F0B0
:101B40000300012806D12068006800F0010008B1F8
:101B5000012000E0002038B900BF0E4800680E499F
:101B600008400E49C1F80803204600F017F900208C
:101B7000E065206600216166A06500BF84F854001E
:101B800000BF00BF2EE7000004800080300882E024
:101B900000F0FF0308030450FFFF00FE00000450A4
:101BA00001460868006C7047F8B504460026002519
:101BB000002000900CB90120F8BD206918B1606ABE
:101BC000012800D100BFA06D30B9204600F0FCF81C
:101BD0000020E06584F8540020688168C1F34071FA
:101BE00031B120688168674A1140816000BF00BF41
:101BF000206803F04BFEB8B920688168624A114042
:101C000041F08051816000BF604800686049B0FBCE
:101C1000F1F000EB80004000009002E00098401ED0
:101C2000009000980028F9D1206803F02FFE40B9F9
:101C3000A06D40F01000A065E06D40F00100E0658F
:101C40000126A06D00F01000002872D1206803F07A
:101C500022FE0028F9D1A06D20F4807040F002002F
:101C6000A0652068806800F00300012806D1206884
:101C7000006800F0010008B1012000E0002050B928
:101C800000BF60684349896821F47C110143414ADF
:101C9000916000BF00BFA16BE06941EA4030E1689C
:101CA0000843A1680843A18C40EA0145606A012805
:101CB00003D1208D401E45EA4045E06A28B1A08D41
:101CC00000F47070216B084305432068C0683249F6
:101CD000084028432168C8602068806800F00C0034
:101CE00008B1012000E0002010BB0021A06941EAFA
:101CF0008031606B41EA40052068C06844F202010F
:101D0000884328432168C860E06B012812D1206C09
:101D100040F00101606C0843A16C0843E16C08438A
:101D20002168096940F2FC72914308432168086107
:101D300006E01FE02068006920F0010021680861CA
:101D40002069012809D12068006B20F00F00216A6A
:101D5000491E08432168086305E02068006B20F0F5
:101D60000F0021680863A06D20F0020040F0010020
:101D7000A06504E0A06D40F01000A065012630468B
:101D80001AE70000C0FFFF5FC0FFFF7F7C0000205C
:101D900080841E000003045007C0F0FF10B5044605
:101DA0000749206888420AD10648C06C20F40050D8
:101DB0000449C86408214FF0904000F00BFB10BDAF
:101DC000000004500010024010B586B004460F49D0
:101DD0002068884218D100BF0D48C06C40F4005004
:101DE0000B49C8640846C06C00F40050009000BF66
:101DF00000BF082001900B2002900020039001A951
:101E00004FF0904000F088FB06B010BD0000045079
:101E1000001002402DE9F04104460D46002700263F
:101E2000B0466069082801D108260CE02068C06827
:101E300000F0010030B1A06D40F02000A06501204D
:101E4000BDE8F081042600F05BFC074612E0681C48
:101E500080B125B100F054FCC01BA8420AD9A06D86
:101E600040F00400A06500BF002084F8540000BFCB
:101E70000320E5E72068006830400028E7D0A06D27
:101E800040F40070A0652068C06800F4406098B914
:101E9000E06988B92068006800F0080008280BD1C4
:101EA000A06D20F48070A065A06D00F4805018B97A
:101EB000A06D40F00100A0652068D0F80C80082ECD
:101EC00003D108202168086005E008F4804010B9BB
:101ED0000C20216808600020B2E770B50446002598
:101EE000206803F0D8FC002844D100BF94F85400C7
:101EF000012801D1022070BD012084F8540000BFE8
:101F00002046FEF7E1FD054675BBA06D40F6016178
:101F1000884340F48070A065A06D20F48010A06517
:101F2000A06D00F48050B0F5805F04D1E06D20F02A
:101F30000600E06501E00020E0651C2021680860E3
:101F400000BF002084F8540000BF2068C06800F083
:101F5000007028B1A06D20F4005040F48050A065BE
:101F6000206803F09DFC06E0FFE700BF002084F836
:101F7000540000E002252846BDE770B50446002560
:101F800094F82500022803D00420E063012520E016
:101F90002068006820F00E00216808602068006852
:101FA00020F001002168086094F8440000F01C0152
:101FB00001208840216C4860012084F8250000BF82
:101FC000002084F8240000BFA06B10B12046A16B54
:101FD0008847284670BD0000014609B901207047B6
:101FE0000868006820F001000A681060294A086843
:101FF00090420BD2284A0868801A1422B0FBF2F0F3
:10200000800048642448083808640AE0214A0868C7
:10201000801A1422B0FBF2F0800048641D48083892
:10202000086400200A68106091F8440000F01C0267
:10203000012090400A6C5060174A083A086C9042A0
:102040000DD1D0F8A80091F8442002F01C030F2213
:102050009A409043104A083AC2F8A8000CE00D4894
:10206000A030006891F8442002F01C030F229A402F
:102070009043084AA03210600020C8620863486399
:102080008863C86381F8250000BF81F8240000BF81
:1020900000BFA4E7080402400800024010B5014652
:1020A00009B9012010BD3E4B086898420BD23D4B48
:1020B0000868C01A1423B0FBF3F080004864394864
:1020C000083808640AE0364B0868C01A1423B0FBCD
:1020D000F3F080004864324808380864022081F830
:1020E00025000868026847F6F0708243D1E90203D0
:1020F00018430B6918434B6918438B691843CB6924
:1021000018430B6A18430243086802608868B0F5F8
:10211000804F3AD0234B083B086C98421BD1D0F833
:10212000A80091F8443003F01C040F23A340984307
:102130001C4BA033186091F8443003F01C0348682E
:102140009840184B083BD3F8A8301843154B083B70
:10215000C3F8A80019E01248A030006891F8443094
:1021600003F01C040F23A34098430D4BA0331860C9
:1021700091F8443003F01C0348689840084BA033A2
:102180001B681843064BA03318600020C863012069
:1021900081F82500002081F8240000BF82E70000BC
:1021A000080402400800024070B50446002500F013
:1021B000A7FA054600BF00F0A3FA401BA042FAD3DD
:1021C00070BD00002DE9F04104460F4600BF3E48B7
:1021D0000078012802D10220BDE8F08101203A49AF
:1021E000087000BF4CF25030FEF77EFE0646002E0F
:1021F00063D1354948603548006800F40070B8B1D3
:102200003248006820F400703049086008460068D1
:1022100000F4806040B10846006820F480600860E7
:1022200003202949087715E001202749087711E0A4
:102230002648006800F4806048B12448006820F413
:1022400080602249086002201F49087702E00020D0
:102250001D490877206801280ED16068FEF7FAFD55
:102260004CF25030FEF740FE06461848406920F018
:102270000400164948611EE04FF0FF303860A56841
:1022800013E028466168FEF7F7FD4CF25030FEF788
:102290002BFE06460D48406940F2FA7188430B490F
:1022A00048610EB13D6005E06D1CD4E902010844AF
:1022B000A842E6D800BFFEF797FD00BF0020024904
:1022C000087000BF304687E75C0000200020024015
:1022D0000348406940F000400149486100207047D0
:1022E000002002402DE9F0470446884615461E4668
:1022F0004FF0000900BF29480078012802D10220D0
:10230000BDE8F08701202549087000BF4CF250302D
:10231000FEF7EAFD0746002F38D1204948602048E3
:10232000006800F4806048B11D48006820F48060B7
:102330001B49086002201949087702E0002017496C
:1023400008773CB92A4633464046FEF7A9FD4FF0D0
:1023500001090BE0012C01D0022C07D1294640468F
:10236000FEF7AAFD022C01D14FF480294CF2503027
:10237000FEF7BAFD0746B9F1000F05D008484069DD
:1023800020EA090006494861FEF72EFD00BF002043
:102390000249087000BF3846B2E700005C00002028
:1023A0000020024000200849496901F0004151B174
:1023B0000649054A9160064991601146496901F054
:1023C000004101B101207047002002402301674510
:1023D000AB89EFCDF0B50B4600210022002475E05B
:1023E00001258D4005EA0302002A6ED005684F00E2
:1023F0000326BE4035430560CE0800F1200555F8A0
:1024000026504E07F70E0F26BE40B543CF0800F109
:10241000200646F8275085684F000326BE40B54386
:102420008560466801258D40AE434660C5684F0013
:102430000326BE40B543C560274D8E0855F826409B
:102440008D072E0F0F25B5402C40B0F1904F01D1D4
:10245000002514E0214DA84201D101250FE0204DB7
:10246000A84201D102250AE01E4DA84201D1032550
:1024700005E01D4DA84201D1042500E007258E0787
:10248000360FB540A54220D18D072E0F0F2505FA36
:1024900006F4114D8E0855F82660A6438F0845F8BE
:1024A0002760124D2D689543104E3560351D2D68FF
:1024B0009543361D3560351D2D689543361D3560B5
:1024C000351D2D689543361D3560491C23FA01F5ED
:1024D000002D85D1F0BD0000080001400004004837
:1024E00000080048000C00480010004800040140AB
:1024F00010B504462046FEF75BFF10BD10B504463C
:1025000004480068204020B1024804602046FFF7DC
:10251000EFFF10BD1404014078B5034600220024EB
:102520000020CBE0012696400D6805EA0604002C49
:1025300072D04D68022D02D04D68122D13D1D608ED
:1025400003F1200555F826005507EE0E0F25B5407E
:10255000A8435607F60E0D69B5402843D60803F187
:10256000200545F82600186856000325B540A84305
:102570000D7905F003055600B540284318604D68F5
:10258000012D08D04D68022D05D04D68112D02D0C7
:102590004D68122D13D1986856000325B540A84305
:1025A0005600CD68B540284398605868012595408D
:1025B000A8430D79C5F30015954028435860D868A5
:1025C00056000325B540A84356008D68B540284302
:1025D000D8604D6805F08055B5F1805F6DD100BFC2
:1025E000394D2D6E45F00105374E356635462D6E59
:1025F00005F00105009500BF00BF4FEAB63596080B
:1026000055F8260095072E0F0F25B540A843B3F1C6
:10261000904F02D1002515E04FE02C4DAB4201D187
:1026200001250FE02A4DAB4201D102250AE0294DD8
:10263000AB4201D1032505E0274DAB4201D1042572
:1026400000E007259607360FB5402843234D96082E
:1026500045F82600224D2868A0434D6805F48035D2
:10266000B5F5803F00D120431D4D28602D1D286801
:10267000A0434D6805F40035B5F5003F00D1204377
:10268000174D2D1D28602D1D2868A0434D6805F4A9
:102690008015B5F5801F00D12043114D0835286005
:1026A0002D1D2868A0434D6805F40015B5F5001FE1
:1026B00000D120430A4D0C352860521C0D68D540CE
:1026C000002D7FF42FAF78BD0010024000040048B9
:1026D00000080048000C00480010004808000140B5
:1026E00000040140024613690B400BB1012000E0D9
:1026F000002070470AB1816100E0816270470000EC
:10270000014800687047000058000020024692F817
:10271000410020282DD100BF92F84000012801D1AE
:1027200002207047012082F8400000BF242082F878
:1027300041001068006820F00100136818601068FC
:10274000006820F48050136818601068006808431F
:10275000136818601068006840F001001368186082
:10276000202082F8410000BF002082F8400000BF16
:10277000D7E70220D5E710B502460B4692F8410094
:1027800020282AD100BF92F84000012801D1022060
:1027900010BD012082F8400000BF242082F84100D3
:1027A0001068006820F0010014682060106801685B
:1027B00021F4706141EA032110680160106800682B
:1027C00040F0010014682060202082F8410000BF22
:1027D000002082F8400000BFDAE70220D8E710B5F9
:1027E000044624B94FF400706064012010BD242019
:1027F00084F841002068006820F00100216808602A
:10280000204600F0D5F90020606484F84100206380
:1028100084F8420000BF84F8400000BF00BFE5E735
:1028200010B5044624B94FF400706064012010BD57
:1028300094F8410028B9002084F84000204600F0B8
:10284000CFF9242084F841002068006820F00100BE
:1028500021680860606820F0706021680861206865
:10286000806820F4004021688860E068012805D174
:10287000A06840F400402168886004E0A06840F44B
:10288000044021688860E068022802D18002216843
:1028900048602068406814490843216848602068FF
:1028A000C06820F400402168C860D4E904010843EE
:1028B000A16940EA01202168C860D4E90701084302
:1028C000216808602068006840F001002168086005
:1028D00000206064202084F841000020206384F8F8
:1028E000420000BFA3E70000008000022DE9F8438A
:1028F0000446894616461F46DDF8208094F84100BC
:10290000202873D100BF94F84000012802D1022092
:10291000BDE8F883012084F8400000BFFFF7F0FE17
:10292000054619230122D1032046009502F0C0FE7E
:1029300008B10120ECE7222084F84100102084F83F
:10294000420000206064666267856063608DFF28D6
:102950000CD9FF2020853C48009094F828204FF0A7
:1029600080734946204602F089FE0BE0608D208589
:102970003548009094F828204FF0007349462046CF
:1029800002F07CFE3FE02A464146204602F0C0FEAF
:1029900008B10120BCE72068406AC1B2626A501CDD
:1029A00060621170208D401E2085608D401E608504
:1029B000608D40B3208D30BB4346002280212046ED
:1029C000009502F075FE08B10120A1E7608DFF2897
:1029D0000DD9FF2020850020009094F828204FF08A
:1029E00080734946204602F049FE0CE02AE0608DE3
:1029F00020850020009094F828204FF0007349466D
:102A0000204602F03BFE608D0028BCD12A4641469C
:102A1000204602F0CDFE08B1012079E72020216890
:102A2000C861206840680949084021684860202042
:102A300084F84100002084F8420000BF84F8400080
:102A400000BF65E7022063E70024008000E800FE85
:102A50002DE9F8430446894616461F46DDF82080D6
:102A600094F84100202870D100BF94F8400001285C
:102A700002D10220BDE8F883012084F8400000BFA5
:102A8000FFF73EFE054619230122D103204600959B
:102A900002F00EFE08B10120ECE7212084F841008D
:102AA000102084F8420000206064666267856063DD
:102AB000608DFF280BD9FF2020853B48009094F8BB
:102AC0002820C3024946204602F0D8FD0AE0608D66
:102AD00020853548009094F8282003034946204675
:102AE00002F0CCFD3EE02A464146204602F08BFE35
:102AF00008B10120BEE7616A481C6062087821685D
:102B00008862608D401E6085208D401E2085608D0E
:102B100040B3208D30BB43460022802120460095E3
:102B200002F0C6FD08B10120A4E7608DFF280DD991
:102B3000FF2020850020009094F828204FF080731B
:102B40004946204602F09AFD0CE02AE0608D20857F
:102B50000020009094F828204FF00073494620464A
:102B600002F08CFD608D0028BDD12A4641462046EA
:102B700002F01EFE08B101207CE720202168C86118
:102B8000206840680949084021684860202084F88E
:102B90004100002084F8420000BF84F8400000BFDC
:102BA00068E7022066E700000020008000E800FEE1
:102BB00010B504460849206888420BD10748806D4B
:102BC00020F40010054988654FF4C0614FF0904033
:102BD000FFF700FC10BD0000005400400010024050
:102BE00010B586B004461149206888421BD1C02028
:102BF00001901220029001200390032004900420F1
:102C0000059001A90A48FFF787FC00BF0948806DBD
:102C100040F40010074988650846806D00F40010F4
:102C2000009000BF00BF06B010BD0000005400407F
:102C3000000400480010024070B504460CB90120A1
:102C400070BD4CF6CC402168086045F255502168B3
:102C50000860D4E9001048602168A0688860FFF728
:102C60004FFD054606E0FFF74BFD401B302801D91C
:102C70000320E5E72068C0680028F4D120680169D6
:102C8000E068814203D02168E068086103E04AF609
:102C9000AA20216808600020D2E701464AF6AA204F
:102CA0000A6810600020704702480068401C014913
:102CB000086070475800002010B5032000F0B6F8F7
:102CC000002000F005F800F017F8002010BD00000B
:102CD00070B50446074800684FF47A71B0FBF1F50F
:102CE000284601F0BFFD00222146501E00F05CF88E
:102CF000002070BD7C00002008B500BF2148006E98
:102D000040F001001F4908660846006E00F001000F
:102D1000009000BF00BF00BF0846806D40F08050AB
:102D200088650846806D00F08050009000BF00BFAD
:102D3000032000F07BF8002211466FF00B0000F03A
:102D400033F8002211466FF00A0000F02DF800223F
:102D500011466FF0090000F027F800221146501FBD
:102D600000F022F800221146101F00F01DF800228A
:102D70001146901E00F018F800221146501E00F077
:102D800013F808BD0010024001460846002809DB80
:102D900000F01F0301229A4043099B0003F1E02346
:102DA000C3F8002100BF70472DE9F05F80460D4653
:102DB0001646002705F0E0F8074639462A4633460E
:102DC00001F00700C0F1070ABAF1040F02D94FF071
:102DD000040A01E0C0F1070AD14600F1040ABAF181
:102DE000070F02D24FF0000A01E0A0F1030AD44617
:102DF0004FF0010A0AFA09FAAAF1010A0AEA020ADC
:102E00000AFA0CFA4FF0010B0BFA0CFBABF1010BB9
:102E10000BEA030B4AEA0B042146404605F0B4F8DE
:102E200000F000B830BCBDE8C09F000000BF00F05B
:102E30000702064B19684FF6FF031940044B0B437A
:102E400043EA0221014B196000BF70470CED00E01E
:102E50000000FA0502460021B2F5007F29D11D4885
:102E6000006800F4C060B0F5007F31D019480068F8
:102E700020F4C06040F40070164B186016480068DB
:102E8000164BB0FBF3F0322300FB03F100E0491EC8
:102E900031B11048406900F48060B0F5806FF6D021
:102EA0000C48406900F48060B0F5806F10D10320B9
:102EB00070470848006800F4C060B0F5806F07D024
:102EC0000448006820F4C06040F48060014B186042
:102ED0000020EDE7007000407C00002040420F0021
:102EE0000D49096821F00701891C0B4A11600B4943
:102EF000096841F00401094A1160012801D130BF7D
:102F000002E040BF20BF20BF0449096821F004014E
:102F1000024A1160704700000070004010ED00E0B0
:102F20000248006800F4C060704700000070004074
:102F30000348006840F48070014908607047000051
:102F4000007000400348006840F004000149086038
:102F500070470000001002402DE9F84304460026A7
:102F600000270025A846208800F40060B0F5006F17
:102F700026D1606C68B1B0F5000F03D0B0F5400FFA
:102F80000ED10CE0D448C06840F48030D249C8600B
:102F900008E00021201D02F001FE054602E001E0EC
:102FA000012500BF00BF55B9CB488830006820F428
:102FB0004000616C0843C849C1F8880000E0A84699
:102FC000206800F40030B0F5003F74D14FF00009E4
:102FD000C148806D00F0805078B900BFBE48806D58
:102FE00040F08050BC4988650846806D00F08050F4
:102FF000009000BF00BF4FF00109B848006840F4DE
:103000008070B6490860FFF77BFB074606E0FFF7D4
:1030100077FBC01B022801D9032505E0AF480068F3
:1030200000F480700028F2D000BF7DBBAA48903029
:10303000006800F44076CEB1A06DB04216D0A6482C
:103040009030006820F44076A348D0F8900040F417
:103050008030A149C1F890000846D0F8900020F4D3
:103060008030C1F890000846C0F8906006F001007A
:10307000A8B1FFF745FB074609E0FFF741FBC01B7E
:1030800041F28831884202D9032507E016E09248D0
:103090009030006800F002000028EED000BF5DB95B
:1030A0008D489030006820F44070A16D08438A4933
:1030B000C1F8900003E00CE0A84600E0A846B9F192
:1030C000010F05D18448806D20F0805082498865C9
:1030D00000BF207800F0010048B17F4888300068C8
:1030E00020F00300216A08437B49C1F8880020785A
:1030F00000F00200022809D177488830006820F0EB
:103100000C00616A08437449C1F88800207800F017
:103110000400042809D170488830006820F030008D
:10312000A16A08436C49C1F88800207800F02000AB
:10313000202809D168488830006820F44060E16A9E
:1031400008436549C1F88800208800F40070B0F594
:10315000007F09D160488830006820F44020E16B8E
:1031600008435D49C1F88800208800F48060B0F50C
:10317000806F09D158488830006820F44010216CD5
:1031800008435549C1F88800207800F040004028E5
:1031900009D151488830006820F44050216B084321
:1031A0004D49C1F88800207800F08000802809D1BE
:1031B00049488830006820F44040616B0843464924
:1031C000C1F88800208800F48070B0F5807F09D1B4
:1031D00041488830006820F44030A16B08433E49E4
:1031E000C1F88800206800F40020B0F5002F1FD13E
:1031F00039488830006820F04060A16C08433649A7
:1032000088310860A06CB0F1006F06D13248C06808
:1032100040F480103049C8600AE0A06CB0F1806FC3
:1032200006D10121201D02F0B9FC054605B1A846D2
:10323000206800F48020B0F5802F1FD12648883008
:10324000006820F04060E16C084323498831086041
:10325000E06CB0F1006F06D11F48C06840F48010E8
:103260001D49C8600AE0E06CB0F1806F06D1012111
:10327000201D02F093FC054605B1A846208800F405
:103280008040B0F5804F14D113488830006820F09A
:103290004050216D0843104988310860206DB0F11D
:1032A000805F06D10221201D02F078FC054605B1A1
:1032B000A846208800F40040B0F5004F09D1064828
:1032C0008830006820F08040616D08430249C1F8F1
:1032D00088004046BDE8F8830010024000700040BE
:1032E00070B504460D460CB9012070BD5348006806
:1032F00000F00700A8420ED25048006820F00700F6
:1033000028434E4908600846006800F00700A842BC
:1033100001D00120E9E7207800F00100002840D02A
:103320006068032806D14648006800F00070D8B9EC
:103330000120DAE76068022806D14148006800F4FD
:10334000003088B90120D0E7606830B93C48006897
:1033500000F0020040B90120C7E73948006800F4D6
:10336000806008B90120C0E73548806820F003007C
:103370006168084332498860FFF7C2F9064608E0F1
:10338000FFF7BEF9801B41F28831884201D9032042
:10339000ABE72B48806800F00C006168B0EB810F50
:1033A000EED1207800F00200022807D1244880687E
:1033B00020F0F000A1680843214988601F48006898
:1033C00000F00700A8420ED91C48006820F0070052
:1033D00028431A4908600846006800F00700A84220
:1033E00001D0012081E7207800F00400042807D1F3
:1033F0001348806820F4E060E16808431049886061
:10340000207800F00800082808D10D48806820F4D2
:103410006050216940EAC1000949886000F01CF849
:1034200007498968C1F30311064A515CC84006493F
:1034300008600020FFF74CFC002056E70020024007
:1034400000100240109100087C0000200148006834
:10345000704700007C000020F0B50021002300240C
:103460000225022200203B4EB66806F00C065EB133
:10347000384EB66806F00C060C2E1ED1354EF66896
:1034800006F00306012E18D1324E366806F0080603
:103490002EB9304E94363668C6F3032103E02D4E24
:1034A0003668C6F303112C4E56F82110294EB66823
:1034B00006F00C0686B908460EE0264EB66806F001
:1034C0000C06042E01D1254806E0224EB66806F00F
:1034D0000C06082E00D122481E4EB66806F00C06D7
:1034E0000C2E36D11B4EF66806F00304194EF66812
:1034F000C6F30216721C012C19D0022C02D0032C28
:1035000014D109E0154EB6FBF2F6124FFF68C7F36F
:10351000062706FB07F313E0114EB6FBF2F60D4F3C
:10352000FF68C7F3062706FB07F309E000BFB1FBFE
:10353000F2F6084FFF68C7F3062706FB07F300BF44
:1035400000BF044EF668C6F34166761C7500B3FBF7
:10355000F5F0F0BD00100240289100080024F400AE
:1035600000127A00F8B504460CB90120F8BD2078A5
:1035700000F0100010286ED1F848806800F00C00B0
:10358000002869D1F548006800F0020018B1A06970
:1035900008B90120EAE7F148216A006800F0080054
:1035A00020B1EE48006800F0F00005E0EB489430F0
:1035B000006800F47060000981421FD9206A02F09F
:1035C000B3FB08B10120D1E700BFE448006840F038
:1035D0000800E24908600846006820F0F000216A0F
:1035E0000843DE49086000BF0846406820F47F4079
:1035F000E16940EA0120D94948601EE000BFD74890
:10360000006840F00800D54908600846006820F0CE
:10361000F000216A0843D149086000BF08464068AD
:1036200020F47F40E16940EA0120CC494860206AEB
:1036300002F07AFB08B1012098E7FFF70DFFC749B8
:103640008968C1F30311C64A515CC840C549086086
:103650000020FFF73DFB4AE0A06980B3BF48006847
:1036600040F00100BD490860FFF74AF8054606E052
:10367000FFF746F8401B022801D9032076E7B74838
:10368000006800F002000028F2D000BFB3480068D4
:1036900040F00800B14908600846006820F0F000DA
:1036A000216A0843AD49086000BF0846406820F41D
:1036B0007F40E16940EA0120A849486017E0FFE740
:1036C000A648006820F00100A4490860FFF718F838
:1036D000054606E0FFF714F8401B022801D9032035
:1036E00044E79E48006800F002000028F2D12078EC
:1036F00000F00100002868D09848806800F00C00B5
:1037000008280BD09548806800F00C000C280ED1DA
:103710009248C06800F00300032808D18F48006871
:1037200000F4003088B3606878BB01201EE700BF5A
:103730006068B0F5803F06D18848006840F480306A
:10374000864908601AE06068B0F5A02F0BD1834865
:10375000006840F48020814908600846006840F411
:10376000803008600AE07D48006820F480307B49A2
:1037700008600846006820F48020086000BF606888
:1037800090B1FEF7BDFF054607E01EE0FEF7B8FF6B
:10379000401B642801D90320E8E67048006800F463
:1037A00000300028F2D010E0FEF7AAFF054606E040
:1037B000FEF7A6FF401B642801D90320D6E6674820
:1037C000006800F400300028F2D1207800F00200F8
:1037D00002285ED16148806800F00C0004280BD0FC
:1037E0005E48806800F00C000C2818D15B48C06867
:1037F00000F00300022812D15848006800F48060ED
:1038000018B1E06808B90120B0E65448406820F0DB
:10381000F850217C40EA01605049486039E0E06896
:1038200000B34E48006840F480704C490860FEF7D1
:1038300067FF054606E0FEF763FF401B022801D93B
:10384000032093E64548006800F480600028F2D029
:103850004248406820F0F850217C40EA01603F492E
:10386000486016E03D48006820F480703B490860DD
:10387000FEF746FF054606E0FEF742FF401B022822
:1038800001D9032072E63548006800F48060002802
:10389000F2D1207800F00800082836D16069D0B154
:1038A0002E489430006840F001002C49C1F8940083
:1038B000FEF726FF054606E0FEF722FF401B022822
:1038C00001D9032052E625489430006800F0020038
:1038D0000028F1D019E021489430006820F0010060
:1038E0001E49C1F89400FEF70BFF054606E0FEF7FF
:1038F00007FF401B022801D9032037E61748943000
:10390000006800F002000028F1D1207800F00400E7
:1039100004286ED100261148806D00F0805070B9E7
:1039200000BF0E48806D40F080500C498865084605
:10393000806D00F08050009000BF00BF01260A4853
:10394000006800F48070F0B90748006840F48070A7
:1039500005490860FEF7D4FE05460EE0001002405F
:10396000109100087C00002000700040FEF7C8FEA7
:10397000401B022801D90320F8E59D48006800F4A7
:1039800080700028F2D000BFA068012808D19948B3
:10399000006840F0010097499039C1F8900021E09B
:1039A000A06805280FD19348006840F004009149B1
:1039B0009039C1F890000846D0F8900040F001001E
:1039C000C1F890000EE08B48006820F001008949A2
:1039D0009039C1F890000846D0F8900020F004001B
:1039E000C1F8900000BFA068A0B1FEF789FE0546AF
:1039F00009E02DE0FEF784FE401B41F28831884249
:103A000001D90320B2E57B48006800F002000028DD
:103A1000F0D012E0FEF774FE054608E0FEF770FEF7
:103A2000401B41F28831884201D903209EE571484C
:103A3000006800F002000028F0D1012E07D16D4887
:103A40009038806D20F080506A499039886500BFB9
:103A5000207800F02000202838D1606AD8B165486D
:103A60000830006840F0010062499039C1F89800C0
:103A7000FEF746FE054606E0FEF742FE401B022822
:103A800001D9032072E55B480830006800F00200AD
:103A90000028F1D01AE057480830006820F00100F3
:103AA00054499039C1F89800FEF72AFE054606E011
:103AB000FEF726FE401B022801D9032056E54D489B
:103AC0000830006800F002000028F1D1A06AE8B3D5
:103AD00048489038806800F00C000C2874D0A06A28
:103AE000022853D143489038006820F08070414943
:103AF00090390860FEF704FE054606E0FEF700FE7A
:103B0000401B022801D9032030E53A48903800686C
:103B100000F000700028F1D1206B401E0101606BA5
:103B200041EA0020E16A0843A18F0122C2EB510162
:103B300040EA41514020005DC2EB500041EA406143
:103B40003820005D41EAC0602A4900E04EE090392B
:103B5000C8600846006840F0807008600846C06889
:103B600040F08070C860FEF7CBFD054606E0FEF72A
:103B7000C7FD401B022801D90320F7E41D489038F7
:103B8000006800F000700028F1D02FE0194890384C
:103B9000006820F080701749903908600846006876
:103BA00000F0006020B90846C06820F00300C8603B
:103BB00010489038C068104908400E499039C860D4
:103BC000FEF79EFD054607E00EE0FEF799FD401B5F
:103BD000022801D90320C9E406489038006800F0A3
:103BE00000700028F1D101E00120BFE40020BDE415
:103BF0000070004090100240FFFFEEFE10B504463A
:103C00000CB9012010BD2068006820F00C0021686C
:103C100008602068406820F0600021684860204605
:103C200000F06AF800206071A06000BF207100BF42
:103C300000BFE7E72DE9F04104460D4600260027C6
:103C400000BF2079012802D10220BDE8F0810120C7
:103C5000207100BF6079012820D102206071FEF739
:103C60004FFD06460CE0FEF74BFD801B022807D9EE
:103C70000420607100BF0020207100BF0320E4E732
:103C80002068406800F001000028ECD020688068BF
:103C9000E060E06828600120607100E0012700BF5B
:103CA0000020207100BF3846CFE710B5044604F16C
:103CB0000C012046FFF7BEFF08B9E06810BD0020E8
:103CC000FCE710B504460CB9012010BD607920B99D
:103CD00000202071204600F01DF80220607120684D
:103CE000006840F004002168086001206071002035
:103CF000A06000BFE9E700000549C96A41F48021DE
:103D0000034AD1621146C96A21F48021D162704709
:103D10000010024010B598B004464FF48020019086
:103D20004FF04060149001A8FFF716F900BF074854
:103D3000C06C40F480200549C8640846C06C00F49B
:103D40008020009000BF00BF18B010BD00100240DE
:103D500002460023106800F1500303EB810318684A
:103D6000704710B50023046804F1500303EB81038E
:103D70001A6010BD70B50446002500BF94F82000FD
:103D8000012801D1022070BD012084F8200000BF6D
:103D9000022084F8210000BFCA2021684862532015
:103DA0002168486200BF2068806820F48060216834
:103DB00088602068806820F4804021688860FEF771
:103DC0009FFC054614E0FEF79BFC401BB0F57A7F94
:103DD0000ED900BFFF202168486200BF032084F88D
:103DE000210000BF002084F8200000BF0320CAE7A4
:103DF0002068C068C0F380000028E4D000BFFF2026
:103E00002168486200BF012084F8210000BF002023
:103E100084F8200000BF00BFB5E700002DE9F041A5
:103E200004460D461646002700BF94F820000128DE
:103E300002D10220BDE8F081012084F8200000BFFB
:103E4000022084F8210000BFCA2021684862532064
:103E50002168486200BF2068806800F48060F0B18B
:103E6000FEF74EFC074614E0FEF74AFCC01BB0F517
:103E70007A7F0ED900BFFF202168486200BF03206F
:103E800084F8210000BF002084F8200000BF032038
:103E9000D0E72068C068C0F380000028E4D1206823
:103EA000806820F48060216888602068C06800F025
:103EB000800060F490602168C860FEF721FC07462E
:103EC00014E0FEF71DFCC01BB0F57A7F0ED900BFD1
:103ED000FF202168486200BF032084F8210000BF52
:103EE000002084F8200000BF0320A3E72068C068FA
:103EF000C0F380000028E4D0206845612068806815
:103F000020F00700216888602068806830432168BD
:103F100088601448006840F4801012490860114815
:103F20000830006840F480100E49083108602068AD
:103F3000806840F48040216888602068806840F490
:103F400080602168886000BFFF202168486200BF50
:103F5000012084F8210000BF002084F8200000BF69
:103F600000BF67E7000401407047000010B5044639
:103F70004FF480100A4908602068C068C0F38020B0
:103F800050B12068C06800F0800060F49060216843
:103F9000C8602046FFF7E8FF012084F8210010BD2B
:103FA0001404014010B504460CB9012010BD94F86A
:103FB000210028B9002084F82000204600F066F88F
:103FC000022084F8210000BFCA20216848625320E3
:103FD0002168486200BF204601F010FF48B100BFD1
:103FE000FF202168486200BF042084F821000120DE
:103FF000DCE72068806824490840216888602169DE
:1040000060680843A16908432168896808432168FA
:1040100088602168E068086120680169208941EAB8
:104020000040216808612068C06820F08000216895
:10403000C8602068806800F0200068B9204600F061
:1040400053F848B100BFFF202168486200BF042038
:1040500084F821000120A9E72068C06C20F003004B
:104060002168C8646169E06908432168C96C084334
:104070002168C86400BFFF202168486200BF01209A
:1040800084F82100002091E7BFFF8FFF10B5A8B092
:10409000044604201790002021900120199017A8B1
:1040A000FFF760FA08B100BFFEE74FF40030009060
:1040B000401216906846FEF74FFF08B100BFFEE7BA
:1040C0000848006840F4004006499039C1F8900063
:1040D000002211460320FEF767FE0320FEF754FE80
:1040E00028B010BD9010024070B50446002520682D
:1040F000C06820F0A0002168C860FEF701FB0546FB
:1041000007E0FEF7FDFA401BB0F57A7F01D90320E6
:1041100070BD2068C06800F020000028F1D00020A9
:10412000F6E708B50146002209E0501CC2B2086853
:10413000C068009000BF042A01D1032008BD0868B0
:10414000806800F4C0600028EFD100BFF6E710B52A
:1041500004460CB9012010BD022084F85D002068DF
:10416000006820F0400021680860204600F06AF8EE
:104170000020206684F85D0000BF84F85C0000BF6A
:1041800000BFE8E770B504460CB9012070BD606A55
:1041900000B900BF0021A16294F85D0028B9002099
:1041A00084F85C00204600F06DF8022084F85D0081
:1041B0002068006820F0400021680860E068B0F5E1
:1041C000E06F01D9002501E04FF48055E068B0F5BB
:1041D000706F05D0E068B0F5E06F01D00021A162FA
:1041E000206B40B9E068B0F5E06F02D9022121638D
:1041F00001E001212163D4E9010108432169084359
:1042000061690843218B01F400710843E1690843A7
:10421000216A0843A16A0843216808600421A06953
:1042200001EA1040616A0843616B0843E168084392
:1042300028432168486000202066012084F85D0042
:104240000020A3E710B504460A49206888420AD135
:104250000948006E20F4805007490866E0214FF0BD
:104260009040FEF7B7F80548FDF7B6FE0448FDF7A5
:10427000B3FE10BD0030014000100240F0010020EC
:104280003802002010B586B00446494920688842AB
:104290007DD100BF4748006E40F480504549086614
:1042A0000846006E00F48050009000BF00BF00BFC1
:1042B0000846806C40F0010088640846806C00F07D
:1042C0000100009000BF00BF00BF0846C06C40F076
:1042D0000100C8640846C06C00F00100009000BFF7
:1042E00000BF202001900220029003900320049040
:1042F0000520059001A94FF09040FEF70DF94020F0
:1043000001900520059001A94FF09040FEF704F9B7
:10431000802001900520059001A94FF09040FEF704
:10432000FBF82548254908600120486010212348F2
:1043300081600021C16080210161002141618161B2
:10434000C1610162FDF7AAFE00BF1C48606584627E
:1043500000BF194814381A4908600120486000213C
:1043600017488160C1608021016100214161816144
:10437000C1614FF400510162FDF790FE00BF10488B
:10438000A065846200BF012211460D2000E00CE010
:10439000FEF70AFD0D20FEF7F7FC002201210C209C
:1043A000FEF702FD0C20FEF7EFFC06B010BD00008A
:1043B000003001400010024030000240F0010020B7
:1043C000380200202DE9F84304460D4617461E46E4
:1043D0004FF00008C14600BF94F85C00012802D1EC
:1043E0000220BDE8F883012084F85C0000BFFEF7DE
:1043F00087F9804694F85D00012802D04FF0020949
:10440000B2E005B117B94FF00109ADE0032084F81F
:104410005D0000202066A563A787E7872064A4F8D5
:104420004400A4F846002065E064A068B0F5004FA1
:1044300005D12068006840F4804021680860206849
:10444000006800F04000402805D02068006840F077
:10445000400021680860E068B0F5E06F2AD9606824
:1044600010B1E08F012806D128882168C860AD1CF2
:10447000E08F401EE08719E02068806800F00200AD
:10448000022807D128882168C860AD1CE08F401E33
:10449000E0870BE03EB1701C40B1FEF731F9A0EBB4
:1044A0000800B04202D34FF003095DE0E08F00281E
:1044B000E2D13FE0606810B1E08F012811D1E08FB8
:1044C000012807D928882168C860AD1CE08F801EAC
:1044D000E08706E015F8010B21680873E08F401EA5
:1044E000E08724E02068806800F00200022812D1F2
:1044F000E08F012807D928882168C860AD1CE08FAB
:10450000801EE08713E015F8010B21680873E08F27
:10451000401EE0870BE03EB1701C40B1FEF7F0F8A2
:10452000A0EB0800B04202D34FF003091CE0E08F7B
:104530000028D7D142463146204601F027FD08B178
:1045400020202066A06850B900BF0020009020689D
:10455000C068009020688068009000BF00BF206E97
:1045600008B14FF0010900BF012084F85D0000BFD1
:10457000002084F85C0000BF484632E72DE9FC5F6C
:1045800004460D4616461F46DDF830804FF0000AFF
:104590000020019081464FF0010B009000BF94F87D
:1045A0005C00012802D1022000F02AB9012084F821
:1045B0005C0000BFFEF7A4F8814694F85DA0606837
:1045C0000190BAF1010F0BD00198B0F5827F04D1B0
:1045D000A06810B9BAF1040F02D00220009005E1E2
:1045E0000DB106B117B901200090FFE094F85D000D
:1045F000042802D0052084F85D000020206626648F
:10460000A4F84670A4F84470A563E787A787E06420
:104610002065E068B0F5E06F03D8B4F846000128E3
:1046200006D92068406820F480502168486005E081
:104630002068406840F48050216848602068006825
:1046400000F04000402805D02068006840F040009D
:1046500021680860E068B0F5E06F47D9606810B184
:10466000E08F012806D128882168C860AD1CE08F42
:10467000401EE08732E0BBF1000F10D0E08F70B138
:104680002068806800F00200022808D1288821688C
:10469000C860AD1CE08F401EE0874FF0000BB4F8FF
:1046A000460078B12068806800F0010050B12068B1
:1046B000C0683080B61CB4F84600401EA4F846001E
:1046C0004FF0010B08F1010040B1FEF719F8A0EB23
:1046D0000900404502D30320009087E0E08F0028C6
:1046E000C9D1B4F846000028C5D174E0606810B1A3
:1046F000E08F012811D1E08F012807D9288821688F
:10470000C860AD1CE08F801EE08706E015F8010B45
:1047100021680873E08F401EE08755E0BBF1000F71
:104720001BD0E08FC8B12068806800F0020002282A
:1047300013D1E08F012807D928882168C860AD1CF3
:10474000E08F801EE08706E015F8010B21680873F2
:10475000E08F401EE0874FF0000BB4F8460038B3FE
:104760002068806800F0010010B3B4F8460001280A
:1047700013D92068C0683080B61CB4F84600801E8B
:10478000A4F84600B4F8460001280FD82068406815
:1047900040F480502168486008E02068007B06F8FB
:1047A000010BB4F84600401EA4F846004FF0010B80
:1047B00008F1010040B1FDF7A3FFA0EB090040455F
:1047C00002D30320009011E0E08F0028A6D1B4F8B6
:1047D00046000028A2D14A464146204601F0D6FBB9
:1047E00018B1012000902020206600BF012084F82D
:1047F0005D0000BF002084F85C0000BF0098D3E695
:104800003CBCBDE8C09F042808D14FF0E0210969F5
:1048100041F004014FF0E022116107E04FF0E02188
:10482000096921F004014FF0E02211617047000096
:1048300009480068401C0849086008480068401C96
:10484000064908600648006820B105480068401E17
:104850000349086070470000E40000203000002099
:104860003400002070B504462546681EB0F1807FF4
:1048700001D301200FE0681E4FF0E02148610F21B5
:104880004FF0FF3003F080FB00204FF0E021886103
:1048900007200861002070BD10B5FFF7C9FF10BDEB
:1048A0007047704701460022002391F8712091F86B
:1048B000723042EA030070472DE9F0410446206857
:1048C000C569206806682068876805F00F08B8F198
:1048D000000F0CD105F0200048B106F0200030B1E7
:1048E000206E10B12046216E8847BDE8F081B8F1F6
:1048F000000F7FD007F0010018B906F4907000286F
:1049000078D005F0010048B106F4807030B1012084
:1049100021680862606F40F00100606705F00200E6
:1049200048B107F0010030B1022021680862606FD1
:1049300040F00400606705F0040048B107F0010092
:1049400030B1042021680862606F40F002006067A7
:1049500005F0080060B106F0200010B907F0010072
:1049600030B1082021680862606F40F0080060677D
:10497000606F78B305F0200038B106F0200020B158
:10498000206E10B12046216E8847606F00F008004D
:1049900028B92068806800F04000402824D12046D3
:1049A00003F0C6F82068806800F04000402817D166
:1049B0002068806820F0400021688860E06E58B16F
:1049C0001F48E16E8863E06EFDF7D7FA10B1E06E24
:1049D000816B88470DE00DE02046FFF762FF08E09D
:1049E0002046FFF75EFF04E02046FFF75AFF002055
:1049F00060677AE705F4801050B107F4800038B1A1
:104A00004FF48010216808622046FFF749FF6CE7E9
:104A100005F0800040B106F0800028B1606E10B152
:104A20002046616E884760E705F0400030B106F02F
:104A3000400018B1204603F08DF856E700BF54E758
:104A4000197B000810B5034693F87200202862D144
:104A500001B10AB9012010BD00BF93F87000012810
:104A600001D10220F7E7012083F8700000BF5965EB
:104A7000A3F85820A3F85A200020186600BF9868B1
:104A8000B0F5805F0AD1186920B940F2FF10A3F891
:104A90005C001CE0FF20A3F85C0018E0986848B9AF
:104AA000186918B9FF20A3F85C0010E07F20A3F874
:104AB0005C000CE09868B0F1805F08D1186918B903
:104AC0007F20A3F85C0002E03F20A3F85C0000BF59
:104AD00000205867222083F872001868806840F030
:104AE00001001C68A0609868B0F5805F04D1186967
:104AF00010B90A48186601E00948186600BF00208E
:104B000083F8700000BF1868006840F490701C685B
:104B1000206000209FE702209DE70000777B0008CF
:104B2000E37B00081D4A0168914236D11C4909887F
:104B300001F4004189BB1A49098801F4804171B12F
:104B4000184909780A2903D00021154A118024E068
:104B50001349098841F40041114A11801DE01149AF
:104B600009780D2906D10E49098841F480410C4A83
:104B7000118012E00B490978094A1288C2F30D022C
:104B8000094B995406490988491C054A1180114668
:104B90000988132901DD0021118070470038014088
:104BA0008000002086000020700300202DE9F843DB
:104BB00004460D4616461F464FF0000994F8710052
:104BC000202855D105B116B90120BDE8F88300BFF2
:104BD00094F87000012801D10220F6E7012084F842
:104BE000700000BF00206067212084F87100FDF78D
:104BF00087FD8146A4F85060A4F8526021E04B463E
:104C0000002280212046009703F01EF808B10320FF
:104C1000DBE7A068B0F5805F0AD1206940B9A846FB
:104C2000B8F80000C0F3080021680885AD1C03E057
:104C300015F8010B21680885B4F85200401EA4F84D
:104C40005200B4F852000028D9D14B46002240212E
:104C50002046009702F0F8FF08B10320B5E72020B6
:104C600084F8710000BF002084F8700000BFACE73A
:104C70000220AAE77047000010B52DED0C8B82488A
:104C8000008840F6B831884204DA00207F49087075
:104C90007F4908707E48007801281FD17D4A5068FE
:104CA0007D4A916C88470020794908707B490870DB
:104CB00002207B4908700DE07A4B02220F2104206C
:104CC00002F092FC2820FDF76FFA75480078401E2C
:104CD00073490870724800780028EDD16B4800785D
:104CE00001280DD10020694908706E4B02220F2166
:104CF00002F07AFC2820FDF757FAFCF78FFAB8E0AB
:104D0000624800780228FAD100206049087063499F
:104D10000870604A5068604A916C8847614B022273
:104D20001146012002F060FC0D20FDF73DFA4620FF
:104D30005D49086097E05D480078012804D101F0E2
:104D40002FFF00205949087000F0EAFE584800780B
:104D5000012804D100F03AF900205549087055485F
:104D6000007801287FD103F043F8002051490870F2
:104D70005148006842F21071B0FBF1F42046FBF795
:104D8000E9FB41EC1A0B4C480068FBF7E3FB41ECF4
:104D90001D0B9FED4A0B53EC102BFBF7E6FA41EC91
:104DA0001C0B9FED480B53EC102BFBF753FB41EC16
:104DB0001B0B53EC1A2BFBF7CAFA41EC190B9FEDB6
:104DC0003F0B53EC102BFBF721FA41EC180BFBF7D0
:104DD000FAFB3E490860084690ED000ADFED3C0A08
:104DE00020EE200ABCEEC00A3A4880ED000A3248A4
:104DF000006839490968B0FBF1F201FB120042F288
:104E00001071B0FBF1F03549086001F03BF801206A
:104E10003349087033480078487033480078887008
:104E2000254800684FF47A71B0FBF1F02C49C87046
:104E30002E4890ED000ABCEEC00A10EE100A087170
:104E40002B4890ED000ABCEEC00A10EE100A487123
:104E50000B4601221146052002F0C6FB1E20FDF77D
:104E6000A3F905E0FFE71048006800287FF463AF6E
:104E700000BF0948816B0020884702F013FB002027
:104E800000F038B810BD0000940000202900002078
:104E90002A000020609200085C9100089800002021
:104EA00028000020B001002034000020A4000020D1
:104EB0002E0000202F000020B40000200000000081
:104EC0000000F03F000000000088C34024000020E4
:104ED0000000A04638000020B00000202000002084
:104EE000CE010020B8000020BA000020C000002041
:104EF000C4000020BDEC088BBDEC04CBFFF7C2BFA3
:104F000010B52A48007848B9FEF712F84FF420404F
:104F10002749086000202749086045E023480078B9
:104F2000012841D1002021490870FEF701F82248EC
:104F3000006880BB1F480068401C1E4908601F486D
:104F4000006842F21071B0FBF1F01A490968B1FB38
:104F5000F0F200FB121010B901201949087019482D
:104F6000008816490968484342F21071B0FBF1F01D
:104F700010490968B1FBF0F200FB1210A0B9022041
:104F80000F49087010480078401E0F490870002033
:104F90000849086008E0FFE707480068401E064926
:104FA000086000200349086010BD00004200002096
:104FB000380000200000002020000020B000002069
:104FC00029000020B8000020960000202DE9F04FB5
:104FD0008CB00020079082460690059003900490C4
:104FE00081460024002500210191029180468346DC
:104FF0000090FE484078011DFC48801C00F026FF10
:105000000546FA480078C0F3C004F848007800115B
:105010008DF82000F54840788DF82100F348D0F84D
:1050200002100191C088ADF8080000208DF828001A
:10503000EE4890F80890EE4ADDE90110D2E900321E
:105040005940504001437DD1002006E0E749095C0A
:10505000514401F0FF0A411CC8B2E44949780831C3
:105060008142F3DCE14840780830E049085C504573
:10507000E9D19DF8200008287ED2DFE800F004077F
:105080000AF1F0EFEEED0020059076E201200590A8
:1050900073E2002C71D1B9F1020F28D006DCB9F10E
:1050A000000F0AD0B9F1010F6DD117E0B9F1030F6C
:1050B0002ED0B9F1FF0F66D131E0CC48007BCB494F
:1050C000C97A00EB0120C949897A00EB0140C74940
:1050D000497A00EB0160C749086054E0C348807A10
:1050E000C249497A00EB0120C34908804BE0BF4820
:1050F000007BBE49C97A00EB0120BC49897A00EBEC
:105100000140BA49497A00EB0160BC4908603AE0C5
:10511000B648407A00EB8000B949087033E0B348E4
:10512000007BB249C97A00EB0120B049897A00EBD3
:105130000140AE49497A00EB0160AE490860AB48D6
:10514000807B00E01AE2A949497B00EB0120AA49D3
:105150000880A648807CA549497C00EB0120A34932
:10516000097C00EB0140A149C97B00EB0160A34928
:1051700008609E48C07C01E0FEE125E000EB800075
:105180009F49087000BF00BF9A4800689D49884247
:1051900002D90846974908609648006847F230519E
:1051A000884202D2084693490860974800689349AC
:1051B0000968884203D100209049086083E08F4845
:1051C0000068914908607EE0012C7CD187484078D6
:1051D000C01D8649095C85484078801D834A105C63
:1051E00001EB002086B210464078801D1146095C14
:1051F00010464078C01D105C01EB002087B2AE4223
:1052000001D0AF425FD17948807A7849C97A00EB02
:1052100001201FFA80F808F0030000904FEA980B75
:10522000BBF1080F1FD1009810B1012819D108E077
:1052300076486E49C968016075486C490969016022
:1052400010E072486949D1F80D1001607048674953
:10525000D1F81110016005E08BE187E17DE179E192
:1052600034E000BF00BF694890ED000ADFED690A35
:10527000B4EEE00AF1EE10FA08DC90ED000ADFED82
:10528000660AB4EEE00AF1EE10FA04D29FED610A6C
:105290005E4880ED000A5E4890ED000ADFED5F0A8F
:1052A000B4EEE00AF1EE10FA08D390ED000AF2EE47
:1052B000040AB4EEE00AF1EE10FA04DD9FED570A9D
:1052C000534880ED000A0220059056E1002C7DD164
:1052D000B9F1020F2ED006DCB9F1000F0AD0B9F1F6
:1052E000010F79D11AE0B9F1030F37D0B9F1FF0FEF
:1052F00072D13DE03D48007B3C49C97A00EB01207A
:105300003A49897A00EB01403849497A00EB01605B
:10531000384908600120424908705DE03348807ACE
:105320003249497A00EB01203349088001203C4989
:10533000087051E02D48007B2C49C97A00EB012010
:105340002A49897A00EB01402849497A00EB01603B
:105350002A4908600120324908703DE02348407A1C
:1053600000EB80002649087001202D49087033E0C9
:105370001E48007B1D49C97A00EB01201B49897A30
:1053800000EB01401949497A00EB016019490860B6
:105390001648807B1549497B00EB0120164908809F
:1053A0001248807C1149497C00EB01200F49097C9F
:1053B00000EB01400D49C97B00EB01600F4908601B
:1053C0000A48C07C00EB80000D4900E042E0087014
:1053D00001201349087000BF00BF06480068094952
:1053E000884202D90846034908601BE06226002073
:1053F00050000020B0000020B8000020B4000020C1
:10540000BA00002040771B00AC000020C000002044
:10541000C40000200000164300002042000020C20B
:105420002F0000205748006847F23051884202D2CE
:10543000084654490860544800685449096888423D
:1054400003D10020514908607EE0504800684E4971
:10545000086079E0012C77D14D484078C01D4C4957
:10546000095C4B484078801D494A105C01EB0020E4
:1054700086B210464078801D1146095C104640787F
:10548000C01D105C01EB002087B2AE4201D0AF42DC
:105490005AD13F48807A3E49C97A00EB01201FFA71
:1054A00080F808F0030000904FEA980BBBF1080F5A
:1054B0001AD1009810B1012814D108E035483449B8
:1054C000C968016034483249096901600BE031481C
:1054D0002F49D1F80D1001602F482D49D1F8111036
:1054E000016000E000BF00BF2A4890ED000A5FEDB8
:1054F000370AB4EEE00AF1EE10FA08DC90ED000A8B
:105500005FED3B0AB4EEE00AF1EE10FA04D21FEDB3
:105510003F0A204880ED000A1F4890ED000A5FED29
:10552000410AB4EEE00AF1EE10FA08D390ED000A59
:10553000F2EE040AB4EEE00AF1EE10FA04DD1FED1B
:10554000490A154880ED000A01201449087003201B
:10555000059012E0042005900FE0B9F1020F02D18E
:1055600001200F4908700520059006E006200590EF
:1055700003E00620059000E000BF00BF05980CB0D6
:1055800000F010B8B0000020AC000020B4000020F3
:1055900062260020C0000020C40000202F00002050
:1055A000C800002030BCBDE8C08F00BFFEE710B5CA
:1055B000FDF782FB02F086F910BD01688969C1F32D
:1055C000400111B10021026891620168896901F00E
:1055D000010129B90168896941F0010102689161FD
:1055E0007047000070B504460D4616462068806975
:1055F000C0F3001000283DD017E0681CA8B1FDF7EB
:105600007FF8801BA84200D87DB9606C40F0200074
:105610006064202084F84100002084F8420000BF2C
:1056200084F8400000BF012070BD20688069C0F38D
:1056300040100028E1D010202168C8612020216896
:10564000C8612046FFF7B9FF206840680A49084052
:1056500021684860606C40F004006064202084F899
:105660004100002084F8420000BF84F8400000BFE1
:105670000120D9E70020D7E700E800FEF0B5059C3F
:1056800005686D684FF4806606EA545666F0FC269D
:1056900046F4C046B543C1F309064FF47F0707EA55
:1056A00002473E431E432643354306687560F0BDFE
:1056B0002DE9F04104460E4617461D46DDF81880D8
:1056C00019E0681CB8B1FDF71BF8A0EB0800A84270
:1056D00000D885B9606C40F020006064202084F818
:1056E0004100002084F8420000BF84F8400000BF61
:1056F0000120BDE8F081206880693040B04201D1CE
:10570000012000E00020B842DBD00020F1E70000DB
:1057100070B504460D46164640E0324629462046FE
:10572000FFF760FF08B1012070BD20688069C0F3F9
:105730004010F8B120688069C0F3800018B1208D56
:1057400008B10020F0E720202168C8612068406887
:10575000164908402168486000206064202084F8D1
:105760004100002084F8420000BF84F8400000BFE0
:105770000120D9E7FCF7C4FF801BA84200D86DB90F
:10578000606C40F020006064202084F8410000BF7D
:10579000002084F8400000BF0120C5E72068806930
:1057A000C0F380000028B8D00020BDE700E800FE6C
:1057B00070B504460D4616461DE032462946204681
:1057C000FFF710FF08B1012070BDFCF799FF801BA7
:1057D000A84200D87DB9606C40F0200060642020B1
:1057E00084F84100002084F8420000BF84F84000A3
:1057F00000BF0120E8E720688069C0F3401000285E
:10580000DBD00020E0E770B504460D4616461FE0E9
:10581000324629462046FFF7E5FE08B1012070BD5B
:10582000681CA8B1FCF76CFF801BA84200D87DB9AA
:10583000606C40F020006064202084F8410000206B
:1058400084F8420000BF84F8400000BF0120E6E772
:1058500020688069C0F340000028D9D00020DEE72E
:105860008168024A1140491C81607047C0FFFF7F78
:105870000146886800F0E0707047024602F160005F
:1058800000EB8103186800F0F84070470146886813
:10589000C0F30070704701468868C0F3800070470D
:1058A0008168024A1140091D81607047C0FFFF7F77
:1058B00070B501F000744FF0007595FAA5F5B5FAD2
:1058C00085F5EC4000F1140505EB840301F0F87553
:1058D0004FF0F87696FAA6F6B6FA86F6F540072661
:1058E000AE401C68B44301F0F8754FF0F87696FAB4
:1058F000A6F6B6FA86F6F54002FA05F52C431C60CA
:1059000070BD826822F0E0720A438260704710B571
:1059100000F1600404EB81031C6824F0004414438C
:105920001C6010BD0146B1F5807F38D012DC102913
:1059300030D008DC012925D0022925D0042925D022
:1059400008292FD124E0202926D0402925D08029DC
:1059500028D123E0B1F5805F27D009DCB1F5007FC5
:105960001ED0B1F5806F1ED0B1F5006F1AD11BE0CB
:10597000B1F5005F1AD0B1F5804F18D0B1F5004FE6
:1059800010D115E0062070470720FCE70820FAE751
:105990000920F8E70A20F6E700BF00BF00BF00BFFC
:1059A0001720F0E700BF00BF00BF00BF00BF00BF6F
:1059B0002820E8E700B587B01A481B490860002096
:1059C0004860002118488160C16001610421416183
:1059D00000218161C1610121016200214162C16236
:1059E000016341634FF4805181630021C163FCF77F
:1059F000DBF808B1FBF7E4F90C48019006200290AF
:105A0000002003907F200490042005900020069041
:105A100001A90548FBF764FD08B1FBF7D1F907B010
:105A200000BD000000000450DC05002001000080E3
:105A300010B51548154908601548486000211348FD
:105A400081600121C1600021016141618161C16109
:105A50000162FCF7E5FE18B157210EA002F048FAEA
:105A600000210A48FCF752FE18B15E2109A002F09D
:105A70003FFA00210548FCF77EFE18B1652105A01C
:105A800002F036FA10BD00000054004080020020F1
:105A90000D0310002E2E5C5372635C48572D484155
:105AA0004C5C6932632E630010B5094809490860EF
:105AB0000620486040F6FF710648C16040F6A561C7
:105AC0008160FDF7B9F808B1FBF77AF910BD000065
:105AD000003000405406002000BFFEE77047000081
